:100000000C942A000C943F000C943F000C943F0089
:100010000C943F000C943F000C943F000C943F0064
:100020000C943F000C943F000C943F000C943F0054
:100030000C943F000C943F000C943F000C943F0044
:100040000C943F000C943F000C943F000C943F0034
:100050000C943F0011241FBECFE5D8E0DEBFCDBF1A
:1000600010E0A0E6B0E0E0EFF2E002C005900D92F3
:10007000A837B107D9F70E9441000C9476010C947F
:1000800000001F93CF93DF9380E06FEF0E943E014B
:1000900010E0C9E1D0E00CC0812F61E00E94CF00E8
:1000A00088E893E1FE013197F1F70197D9F71F5FD7
:1000B000183094F380E060E00E944B0188E893E1FF
:1000C000FE013197F1F70197D9F710E0E5CF1ABAA1
:1000D00017BA14BA11BA1BBA18BA15BA12BA0895D7
:1000E000482F803208F05AC06130F9F0613020F0BA
:1000F000623009F053C031C0E82FE695E695E695E9
:10010000F0E0EE0FFF1FE059FF4F0190F081E02D6E
:100110002081477081E090E002C0880F991F4A95C6
:10012000E2F78095822380830895E82FE695E6958F
:10013000E695F0E0EE0FFF1FE059FF4F0190F081D0
:10014000E02D2081477081E090E002C0880F991F68
:100150004A95E2F7282B20830895E82FE695E69547
:10016000E695F0E0EE0FFF1FDF01A059BF4F0D90A5
:10017000BC91A02D9C91477021E030E001C0220F7E
:100180004A95EAF7822F809589238C93E05AFF4F96
:100190000190F081E02D8081822B80830895382F9B
:1001A0008032A8F5662319F0613089F519C0E82F6F
:1001B000E695E695E695F0E0EE0FFF1FE05AFF4F5B
:1001C0000190F081E02D2081377081E090E002C045
:1001D000880F991F3A95E2F78095822380830895CE
:1001E000E82FE695E695E695F0E0EE0FFF1FE05A62
:1001F000FF4F0190F081E02D2081377081E090E089
:1002000002C0880F991F3A95E2F7282B20830895A2
:10021000282F803210F08FEF0895E82FE695E695AD
:10022000E695F0E0EE0FFF1FE859FF4F0190F081D7
:10023000E02D808190E0277002C0959587952A95E2
:10024000E2F781700895382F8032B8F4E82FE695F0
:10025000E695E695F0E0EE0FFF1FE05AFF4F0190A4
:10026000F081E02D2081377081E090E002C0880F9E
:10027000991F3A95E2F7282720830895843050F497
:10028000E82FF0E0EE0FFF1FE059FF4F0190F081E3
:10029000E02D60830895843050F4E82FF0E0EE0FF5
:1002A000FF1FE05AFF4F0190F081E02D6083089519
:1002B000843010F08FEF0895E82FF0E0EE0FFF1F6D
:1002C000E859FF4F0190F081E02D8081089584303E
:1002D00060F4E82FF0E0EE0FFF1FE05AFF4F0190AF
:1002E000F081E02D8081809580830895F894FFCF80
:1002F0003B00380035003200390036003300300052
:080300003A003700340031001F
:00000001FF
